:020000040800F2
:10000000A0CE002055020008214700081B4200082E
:100010001D470008311A0008F17B000800000000AD
:10002000000000000000000000000000A1530008D4
:10003000351A0008000000009F480008A35300087C
:100040006F0200086F0200086F0200086F020008CC
:100050006F0200086F0200086F0200086F020008BC
:100060006F0200086F0200086F0200086F020008AC
:100070006F0200086F0200086F0200086F0200089C
:100080006F0200086F0200086F0200086F0200088C
:100090006F0200086F0200086F0200086F0200087C
:1000A0006F0200086F0200086F0200086F0200086C
:1000B0006F0200086F0200086F0200086F0200085C
:1000C0006F0200086F0200086F0200086F0200084C
:1000D0006F020008055C00086F0200086F0200084C
:1000E0006F0200086F0200086F02000800000000A5
:1000F0000000000000000000000000000000000000
:1001000000000000000000006F0200086F020008FD
:100110006F0200086F0200086F0200086F020008FB
:100120006F0200086F0200086F0200086F020008EB
:100130006F02000800000000000000006F020008CD
:100140006F0200086F0200086F02000825470008D0
:1001500000F002F800F06EF80AA090E8000C82446B
:100160008344AAF10107DA4501D100F063F8AFF248
:10017000090EBAE80F0013F0010F18BFFB1A43F085
:100180000103184788FD0000A8FD00000A444FF055
:10019000000C10F8013B13F0070408BF10F8014BE6
:1001A0001D1108BF10F8015B641E05D010F8016B2B
:1001B000641E01F8016BF9D113F0080F1EBF10F88F
:1001C000014BAD1C0C1B09D16D1E58BF01F801CBB2
:1001D000FAD505E014F8016B01F8016B6D1EF9D535
:1001E0009142D6D37047000000230024002500264A
:1001F000103A28BF78C1FBD8520728BF30C148BF8A
:100200000B60704766290FF0AC80752900F04C81B7
:10021000002070471FB59DE8030000F091FB00F03F
:100220005BFE0400002000210DF0BEFEE0601FBD5B
:1002300010B510BD00F072FF1146FFF7EBFF0BF099
:10024000A5FC00F090FF03B4FFF7F2FF03BC01F040
:1002500001F800000948804709480047FEE7FEE72B
:10026000FEE7FEE7FEE7FEE7FEE7FEE7FEE7FEE766
:1002700004480549054A064B7047000045540008EC
:1002800051010008A09C0020A0CE0020A0BC0020AE
:10029000A0BC002070B5064600F036FB056806F1EC
:1002A0000B0020F00704B4429CBF002070BD2B4619
:1002B0006A68BAB11068A04210D304F108018842FC
:1002C0003CBF5068586007D35168101941601168ED
:1002D000091B016058601460101D70BD1346526800
:1002E000002AE7D12146284600F016FB0028DED17F
:1002F00070BD70B50446051F00F006FB0068002CB9
:1003000014BF446870BD002C18BFAC423CBF2046EF
:100310006468F8D301680A18AA4218BF456003D17F
:100320002A6805461144016028684119A1421CBF92
:100330006C6070BD6168696021680844286070BDA8
:1003400053EA020C00F069802DE9F04B4FF00006F3
:10035000002B1FBFB3FA83F503FA05F424FA05F660
:100360005E4012BF1643B2FA82F502FA05F4C5F1F7
:1003700020051EBF22FA05FC44EA0C04203556EA8B
:10038000044C4FEA144418BF641C4FF000084FF0AF
:100390000009904271EB030C39D3002919BFB1FA5F
:1003A00081F701FA07F6B0FA80F700FA07F6C7F10D
:1003B00020071EBF20FA07FC46EA0C062037B6FBD2
:1003C000F4FCA7EB0507103F07F01F0BCBF120064D
:1003D0000CFA0BFB2CFA06F644BFB3460026202F7E
:1003E000A4BF5E464FF0000B5BEA060C08BF4FF05F
:1003F000010B19EB0B09ABFB027C48EB0608C01B99
:1004000006FB02CC0BFB03CC71EB0C01C1E70B46E6
:10041000024641464846BDE8F08B13B54FF0000058
:100420004FF00001AFF30080BDE81C4070470000B2
:100430000FB41CB5074B06AA7B446946009005988B
:1004400000F02DFD0020694600F03CFD1CBC5DF86D
:1004500014FB0000890A000070B504468569006835
:10046000C10601D5302600E02026C00707D070BDA8
:10047000D4E9012130469047206A401C20626D1E5D
:10048000F6D570BD70B5044685690078C00707D100
:1004900070BDD4E9012120209047206A401C2062D1
:1004A0006D1EF6D570BD00002DE9F0410646002412
:1004B00010687529314616A510D0AFF300800028CA
:1004C00002DA404213A507E031688A0701D512A578
:1004D00002E0490704D511A5012401E0AFF3008033
:1004E00000210A2206F1240709E0B0FBF2FCB0FB70
:1004F000F2F302FB1C00303078541846491C0028E7
:10050000F3D123462A463046BDE8F04100F059BAFF
:10051000000000002D0000002B0000002000000063
:100520002DE9F05F894604464FF0000ADFF824B158
:10053000FB44C0F820A02046E168884700287DD011
:10054000252806D0D4E901219047206A401C20626A
:10055000F1E700255F462046E168884720280646E7
:1005600007DB312E05D2B81910F8200C08B105436D
:10057000F1E7A80701D525F00405C4F81CA0002761
:10058000C4F818A02A2E09D0304607F0A0FE38B3D0
:1005900004EB8708303EC8F8186019E059F8041BCE
:1005A000204604EB87029161E1688847012F0646E7
:1005B00018D1E069002820DA25F020051DE0D8F8E0
:1005C000180000EB800006EB40003038C8F8180037
:1005D0002046E1688847064607F079FE0028EED1FC
:1005E000012F0AD02E2E08D12046E16888477F1CB3
:1005F0000646022F45F02005C4DBA069002803DA77
:10060000404245F00105A061E80701D025F0100542
:10061000A6B1A6F14100192802D8203645F400659C
:100620004A463146204625604D46FFF7EBFD60B156
:10063000012807D0ED1D25F0070000E007E000F1DC
:10064000080978E705F1040975E730467AE7206A7A
:10065000BDE8F09FE2F3000010B5431E13F8014F10
:10066000002CFBD105E011F8014B002C03F8014BE5
:1006700003D0521EF7D20021197010BD40EA0103C9
:10068000024630B59B0710D14FF0013400E008C29C
:1006900008C91D1B9D4315EAC41FF8D013F0FF01C4
:1006A00002F8011B0DD01B0AF8E711F8013B002BE3
:1006B00002F8013B05D011F8013B002B02F8013B89
:1006C000F3D130BD10B5431C02E010F8011B71B12D
:1006D0008107FAD14FF0013202C88C1A8C4314EA18
:1006E000C211F9D0C01A0A0603D0C01E10BDC01A2C
:1006F00010BD0A0401D0801E10BD0902FCD0401EAE
:1007000010BD421E12F8013F002BFBD111F8013B36
:10071000002B02F8013BF9D17047032A40F23080E8
:1007200010F0030C00F0158011F8013BBCF1020F32
:10073000624498BF11F801CB00F8013B38BF11F8B3
:10074000013BA2F1040298BF00F801CB38BF00F8CA
:10075000013B11F0030300F02580083AC0F0088047
:1007600051F8043B083A51F804CBA0E80810F5E72B
:10077000121D5CBF51F8043B40F8043BAFF300800E
:10078000D20724BF11F8013B11F801CB48BF11F883
:10079000012B24BF00F8013B00F801CB48BF00F853
:1007A000012B704710B5203AC0F00B80B1E818500B
:1007B000203AA0E81850B1E81850A0E81850BFF44B
:1007C000F5AF5FEA027C24BFB1E81850A0E81850EA
:1007D00044BF18C918C0BDE810405FEA827C24BF3E
:1007E00051F8043B40F8043B08BF7047D20728BFCC
:1007F00031F8023B48BF11F8012B28BF20F8023B1B
:1008000048BF00F8012B704702F0FF0343EA0322C0
:1008100042EA024200F002B84FF000020429C0F0A0
:10082000128010F0030C00F01B80CCF1040CBCF122
:10083000020F18BF00F8012BA8BF20F8022BA1EB74
:100840000C0100F00DB85FEAC17C24BF00F8012B59
:1008500000F8012B48BF00F8012B70474FF0000251
:1008600000B5134694469646203922BFA0E80C50A6
:10087000A0E80C50B1F12001BFF4F7AF090728BF81
:10088000A0E80C5048BF0CC05DF804EB890028BFFD
:1008900040F8042B08BF704748BF20F8022B11F026
:1008A000804F18BF00F8012B704710B5044610F0B8
:1008B000030F08BF11F0030F40F015804FF0013E09
:1008C000121FC0F20E8051F8043BA3EB0E0C2CEA71
:1008D000030C1CEACE1C08BF40F8043BF0D0A1F189
:1008E000040102F10402521E08DB11F8013B002B47
:1008F00000F8013BF7D11146FFF78EFF204610BDEF
:10090000704770477047000000487047449C0020C3
:10091000704770477047704738B504460A46002054
:100920006946AFF30080002808BF38BD0246009931
:10093000204600F0D9FA012038BD012000F0E6BBC6
:10094000F8B5AFF30080054600200C46102000BF2C
:100950000646A819A0420DD9324669460020AFF3D9
:100960000080070008BF00F0D1FB0098A04218BF2C
:100970000546C419FFF7C8FF05600746F01D20F0C3
:1009800007004619284600F00AF8B44208BFF8BD2F
:10099000A21B31463868BDE8F84000F0A5BA002136
:1009A0000160C0E9011070471020704710B500F0D9
:1009B00097FA006810BD10B5044600F091FA046083
:1009C00010BD2DE9F0470D4699469246044600F1C8
:1009D00024080168880604D5E06921F0100121602F
:1009E00000E00120A84201DD471B00E00027A169CB
:1009F0007A1902EB0900081AA0612078C00602D417
:100A00002046FFF729FD002608E0D4E901211AF865
:100A100006009047206A401C761C20624E45F4DB9D
:100A20002078C0060AD52046FFF716FD06E0D4E977
:100A3000012130209047206A401C2062381EA7F117
:100A40000107F4DC07E0D4E9012118F8050090471C
:100A5000206A401C2062281EA5F10105F3DC204617
:100A6000FFF710FD2078000602D50220BDE8F087D0
:100A70000120FBE770472DE9FF4F0C461E464FF063
:100A8000FF378BB0D2E90001DDF860800A908A461A
:100A9000C1F30A5505B93D46002108464FF0000054
:100AA000BAF1000F00F4400005DA00EB80004FF4CB
:100AB000400101EA50004FEA9059B9F1010F00DD01
:100AC000B9460A9850EA4A000ED044F61050A5F2F2
:100AD000FF3545432F14B8F1000F1ED07542291E73
:100AE0001EDDC9F100021CE0B8F1010F4FF000005B
:100AF00001D0302103E0F24305E02154401CB04214
:100B0000FBDB30460022002121540B99C1F80880FC
:100B1000C1E900200FB0BDE8F08FBD1B6D1CDEE702
:100B20004A4600DA694206A800F07EFA06AB93E86E
:100B3000070003AB83E8070050460A9900F0B0FBBA
:100B40008DE80700A0F500501F3800900398002D95
:100B50000ADD42F21F014A460844002303A903901C
:100B6000684600F019FE09E0A0F500504A461F381B
:100B7000002303A90390684600F023FE8DE80700D8
:100B80000004000C03D04FF0FF30410800E0104695
:100B9000B8F1000F03D00022009215461EE0751E2A
:100BA00005D400F0BBF9303262556D1EF9D5B3465D
:100BB0000122084302D000227F1C04E02078302864
:100BC00001D100227F1E002A099784D01DE0112D3B
:100BD00007DA00F0A3F9303262556D1C50EA0102C9
:100BE000F5D1084302D00098C8B10EE00021681E7C
:100BF00005E0235C625C63542254401E491C814220
:100C0000F7DBAB46A81B401E0990002004F80B0040
:100C10000B98099AC0F80880C0E9002B7AE71126E2
:100C20004FF0000857E72DE9F04F88460446D21DE3
:100C300022F0070191B0D1E90001CDE90A0106F0E7
:100C4000D9FF02460B98C00F01D02D2007E0206885
:100C5000810701D52B2002E0202101EAC000032AF0
:100C6000099001D0072A05DB03464146204600F0E3
:100C70009BF90BE12078800601D5E06900E00620B1
:100C8000B8F1650F814606D0B8F1660F18D0B8F1FB
:100C9000670F70D131E00020B9F1110F009001DB36
:100CA000112301E009F101030AAA01A90CA8FFF729
:100CB000E2FEDDE90C70002609F10105834647E0FC
:100CC00001204B4600904FF000470AAA01A90CA84A
:100CD000FFF7D1FEDDE90DB00C995D46002610B995
:100CE00009F101000D18B9EB050003D4C0F1FF367E
:100CF00009F10105A5EB09002BE0B9F1010F01DABB
:100D00004FF001090020B9F1110F0090484601DDB4
:100D1000112300E003460AAA01A90CA8FFF7ABFEC5
:100D2000DDE90C704D4600268346207800070AD482
:100D3000AB4500DA5D4601A8012D04DD411911F82B
:100D4000011C302907D04F4502DA17F1040F04DAED
:100D5000012082460FE06D1EEEE7002F02DCED1B46
:100D60003E4403E0781CA84200DD7D1CB81B00F166
:100D7000010A4FF000472078000703D4AA4501DBA1
:100D80004FF0FF3A0021B7F1004F0DF143088DF805
:100D9000431024D002202B23002F01DA7F422D2381
:100DA0000A21021EA0F1010000DC5FB197FBF1FCFB
:100DB00097FBF1F201FB1C7C17460CF1300C08F894
:100DC00001CDEEE7A8F1010003702188090501D5E6
:100DD000452100E06521A0F1010800F8011C0998F7
:100DE0000FA9A1EB0807FF1D00B10120411901EB7C
:100DF000EA70A1693844081A401EA0612078C00634
:100E000002D42046FFF728FB099828B1D4E9012134
:100E10009047206A401C20622078C00622D52046D8
:100E2000FFF71AFB1EE0002E04DBB34502DD01A82C
:100E3000805D00E03020D4E901219047206A401C09
:100E40002062761CAAF101005FEA000A0AD100F0D4
:100E500043F8C0680168405CD4E901219047206AEA
:100E6000401C2062281EA5F10105DCDC07E0D4E966
:100E7000012118F8010B9047206A401C2062381E9F
:100E8000A7F10107F3DC2046FFF7FCFA032011B0BD
:100E900041E6000001694A1C02610878704700B50C
:100EA0008FB0CDE901310021059105497944CDE9A3
:100EB000031011466846FFF733FB0FB000BD00007A
:100EC000E5FFFFFF0A6802F8010B0A6070470000A7
:100ED000004870473C9C0020004870475C9C002004
:100EE000004870473C9C0020034640688C46002820
:100EF00018BF88423CBF03464068F8D318681844BE
:100F0000884207D00CF1030020F00700001D411AB1
:100F1000521A0146081D0A60FFF7EBB930B5B0F16F
:100F20000A024FEA900E71F100034EEA817EB0EBA7
:100F30000E0061EB91014FEA101E4EEA017E10EBAC
:100F40000E0041EB11114FEA102E4EEA016E10EB2C
:100F50000E0041EB11214FEA104E4EEA014E10EB0C
:100F60000E0041EB1141401841F100014FEAD00061
:100F700040EA41704FEAD10110EB80054FEA81044D
:100F800044EA907444EB01046D1944EB0404521BD1
:100F9000A3414FF0000348BF0A3200D530BD401CCA
:100FA00041F1000130BD00002DE9F0411F4604462B
:100FB00003260168072A01F4006004DB08B116A5C6
:100FC00005E016A503E008B115A500E015A521F080
:100FD00010002060A069C01EA0610FB1401EA0617A
:100FE0002046FFF739FA4FB1D4E90121384690473E
:100FF000206A401C2062C01C206206E0206AFAE7DA
:10100000D4E9012115F8010B9047761EF8D220464D
:10101000FFF738FABDE8F0814E414E006E616E0078
:10102000494E4600696E66002DE9F0478146164636
:101030008AB0354878440DC88DE80D0032487844B0
:10104000801C03AC0DC884E80D0041F69B300844B9
:10105000372190FBF1F290FBF1F5A5F1800501FB42
:1010600012041B3C02D56442012000E00020DFF89E
:1010700098A080460027FA44AAF1BE0A0EE0E007D5
:101080000AD03246684607EB470101230AEB81018B
:1010900000F097FB8DE8070064107F1C002CEED158
:1010A000194F7F44AE3F19E0E80715D007EB041055
:1010B0000DF1180A90E80E008AE80E00C068F042B0
:1010C00001D1981908903246012306A903A800F01F
:1010D00078FB03AB83E807006D10641C002DE3D19F
:1010E0004FF0010332466946B8F1000F03A802D061
:1010F00000F052FB01E000F064FBC9E90001C9F80F
:1011000008200AB0BDE8F087B4EB000010B500F08D
:1011100039F8BDE8104000F02FB870477546FFF76A
:10112000D7FEAE4605006946534620F007008546C7
:1011300018B020B5FFF79CF8BDE820404FF000063E
:101140004FF000074FF000084FF0000B21F00701AF
:10115000AC46ACE8C009ACE8C009ACE8C009ACE8F2
:10116000C0098D46704710B50446AFF30080204695
:10117000BDE81040FFF767B8002801D000F06AB85A
:101180007047000010B5012805D0002103A000F031
:1011900067F8012010BD09A1F8E700005349475244
:1011A000544D454D3A204F7574206F662068656137
:1011B00070206D656D6F7279000000003A204865FF
:1011C0006170206D656D6F727920636F72727570DA
:1011D000746564004FF0013C50F8042B51F8043B57
:1011E0009A4221D1A2EB0C03934313EACC1317D1FB
:1011F00050F8042B51F8043B9A4215D1A2EB0C0392
:10120000934313EACC130BD150F8042B51F8043B51
:101210009A4209D1A2EB0C03934313EACC13DBD01F
:101220004FF00000704700BFD01A01BAB1FA81F147
:1012300001F0180122FA01F0CB40C1F12001DBB22C
:10124000C0B2C01A2CFA01F3D11A914311EAC311AA
:10125000E6D1704701491820ABBEFEE72600020028
:1012600070B505460C460A2000E06D1C00F011F830
:1012700035B128780028F8D102E0641C00F009F8A4
:1012800014B120780028F8D1BDE870400A20AFF3EF
:10129000008008B569468DF800000320ABBE08BD8C
:1012A0005FEA400C08BF91F0000F4FEA8C234FEA31
:1012B000C12243EA51514FEA1C5018BF00F5F040DB
:1012C0004FEA300018BF41F000415FEA6C5C00F06B
:1012D0002980BCF1FF3F08BF40F080407047130CED
:1012E00006BF12044FF0100C4FF0000C130E04BF99
:1012F00012020CF1080C130F04BF12010CF1040CC4
:10130000930F04BF92000CF1020CD30F04BF5200E4
:101310000CF1010C11464FF00002A0F11F00A0EBF0
:101320000C00704711F0004F08BF704731F00041CA
:101330003FF4D5AF0B0C06BF09044FF0100C4FF073
:10134000000C0B0E04BF09020CF1080C0B0F04BFBC
:1013500009010CF1040C8B0F04BF89000CF1020C85
:10136000CB0F04BF49000CF1010CCCF12003A0EB22
:101370000C0022FA03F302FA0CF241EA030100F135
:101380000100704720F07F4C80EA030023F07F4784
:10139000ACEB070303F57C5300F0004003F1FF03BF
:1013A0002DE980494FEA154B09B44FEA144325EA69
:1013B0000B4E24EA03480FF2042606EB13274908D4
:1013C0003E785FEA320203FB0667C7F5000707FBBA
:1013D00006F64FEA54374FEAD64606F1020607FBF7
:1013E000066CCCF1005C4FEA1C472CEA074C07FB6B
:1013F00006F40CFB06F504EB15464FEA961634BFCF
:1014000000204FF000404FEAD13706FB07FC4FEABF
:101410001C4C0CFB0BF7D21B03FB0CF761EB070119
:101420000CFB0EF7B0EB074072EB17420CFB08F712
:1014300034BFA2EB0742B2EB074261EB17414FEA20
:101440000C444FEA910706FB07FC4FEA1C4C0CFBCF
:101450000BF7B0EBC74072EB573203FB0CF734BF0E
:10146000A2EBC742B2EBC74261EB57310CFB0EF760
:10147000B0EBC70072EB57720CFB08F734BFA2EB5E
:10148000C702B2EBC70261EB5771039F4FEA81615C
:1014900041EA921104EBCC044FEAD1374FEA826261
:1014A00006FB07FC42EA90124FEA80604FEA1C4CB0
:1014B0000CFB0BF7D21B03FB0CF761EB07010CFBDA
:1014C0000EF7B0EB074072EB17420CFB08F734BF86
:1014D000A2EB0742B2EB074261EB17414FEA8C5592
:1014E0004FEA910704EB9C2406FB07FC4FEA1C4CD7
:1014F0000CFB0BF7B0EBC74072EB573203FB0CF75A
:1015000034BFA2EBC742B2EBC74261EB57310CFBD1
:101510000EF7B0EBC70072EB57720CFB08F734BF45
:10152000A2EBC702B2EBC70261EB577115EB4C257A
:101530004FEA816141EA92114FEA82624FEAD13764
:1015400042EA901206FB07FC44F100044FEA806077
:101550004FEA1C4C0CFB0BF7D21B03FB0CF761EBA7
:1015600007010CFB0EF7B0EB074072EB17420CFBC8
:1015700008F734BFA2EB0742B2EB074261EB174119
:1015800015EB1C154FEA813141EA92414FEA823254
:1015900042EA90424FEA80304FEA0C7644F1000470
:1015A00048EA03434EEA0B484FF0000EB2EB080C3A
:1015B00071EB030724BF624639464EEB0E0E4FF027
:1015C000000B0018524149414BEB0B0BB2EB080CDE
:1015D00071EB03077BF1000B24BF624639464EEBEB
:1015E0000E0E4FF0000B0018524149414BEB0B0B14
:1015F000B2EB080C71EB03077BF1000B24BF6246D2
:1016000039464EEB0E0E51EA020718BF46F00106AE
:1016100016EB0E7655F1000254F1000103D5BDE83A
:101620008901BDE80088BDE88901BDE80048B61918
:10163000524141EB0101A3F10103704780807F7E9D
:101640007D7C7B7A79787776767574737271717038
:101650006F6E6E6D6C6C6B6A6A69686867666665EA
:101660006464636362616160605F5F5E5E5D5D5C78
:101670005C5B5B5A5A5959585857575656555555E9
:101680005454535352525251515050504F4F4F4E49
:101690004E4D4D4D4C4C4C4B4B4B4A4A4A49494997
:1016A00048484847474747464646454545444444D9
:1016B000444343434342424242414141002B9C4602
:1016C00030D477002BD01CB54FEA370703B44FF066
:1016D00010004FF01001BAF1000F06D0BCF1000F5E
:1016E000DCBF40F0080040F008014FF000000FBCE4
:1016F000BDE810400BF1010BBBF1010F08BF5FEA21
:10170000170722BF12F1010211F101014FF0004150
:1017100043F1000300F0004043EA00007047F9D3B2
:101720005708D0E746EA064613F1400F4FEA16463F
:101730001FDD13F1200FDFBF16430A4600212033BF
:101740005B42BED0C3F1200746EA064602FA07F71D
:101750004FEA164646EA0706C3F1200722FA03F2CB
:1017600001FA07F721FA03F14FF0000342EA0702FA
:10177000A7E746EA020646EA06464FEA164646EA62
:101780000106BCBF46EA0646360C4FF000034FF098
:1017900000024FF0000194E72DE9804C9A469346F1
:1017A00070B491E8380007C831EA400C48BF34EA09
:1017B000430C03D5FFF7E6FDFFF780FFF0BCBDE863
:1017C000008C2DE9804C9A46934670B491E838001D
:1017D00007C810F0804F08BF13F0804F03D100F00E
:1017E00005F8FFF76BFFF0BCBDE8008C20F07F47E9
:1017F00080EA030023F07F4C07EB0C03A3F57C5336
:1018000000F00040A3F1FE0392F0000F00F0B3805F
:1018100095F0000F00F077802DE901494FEA114063
:101820004FEA144621EA004800FB06FC24EA06477A
:1018300008FB06F607FB08F800FB07F718EB06485D
:101840004CEB164C4FEA124B18EB07484FEA154683
:101850004CEB174022EA0B4E0BFB06FC25EA064731
:101860000EFB06F607FB0EFE0BFB07F71EEB064E04
:101870004CEB164C4FF000061EEB074E4CEB174B93
:1018800018EB0B0840F1000018EB0E0B58EB0008AA
:1018900040F100008F1A4FF000013CBFC943661BA6
:1018A00014BFB5EB040C00213CBFC943F61B4FEA43
:1018B00017444EEA8E0E27EA04454FEA1C4704FB04
:1018C00007622CEA074C05FB07F70CFB05F604FB47
:1018D0000CFC16EB074642EB174216EB0C4642EBAC
:1018E0001C421BEB060658EB0202414146EA9E06EB
:1018F00001D5BDE80189B619524141EB0101A3F1BF
:101900000103BDE801894FEA14454FEA114724EA73
:10191000054621EA074C05FB07F406FB07F70CFB1D
:1019200006F105FB0CFC11EB074144EB17444FEAB1
:10193000124711EB0C4144EB1C4422EA074C05FB17
:1019400007F206FB07F70CFB06F605FB0CFC16EB93
:10195000074642EB174216EB0C4642EB1C456A1851
:1019600054F1000148BF7047B619524141EB0101E3
:10197000A3F10103704795F0000F37D04FEA1142F1
:101980004FEA144721EA024624EA074C02FB07F11A
:1019900006FB07F70CFB06F402FB0CFC14EB0744F8
:1019A00041EB17414FEA154714EB0C4441EB1C4146
:1019B00025EA074C02FB07F506FB07F70CFB06F6CA
:1019C00002FB0CFC16EB074645EB174516EB0C46E5
:1019D00045EB1C42121951F1000148BF7047B6197E
:1019E000524141EB0101A3F1010370474FEA144555
:1019F0004FEA114724EA054621EA074C05FB07F1A7
:101A000006FB07F70CFB06F24FF0000605FB0CFC8B
:101A100012EB074241EB174112EB0C4251EB1C4118
:101A200048BF7047921841EB0101A3F101037047D1
:101A300000BFFEE77047000010B500220D490E48B8
:101A400004F083FB08B100F01DF80C490A4804F0CB
:101A50009EFF08B100F016F80949074804F09BFE04
:101A600008B100F00FF8044805F05AF808B100F08A
:101A700009F810BDF8570020747200206458002047
:101A80007041002072B600BFFEE7000070B50A4842
:101A90000468001D0568001D0668344454B108221E
:101AA0000649204602F0BBFB0422044910312846B7
:101AB00002F0B5FB70BD0000E8F7FF1F2E580020B4
:101AC00070B50446002594F82100022803D00420B4
:101AD000A0630125C1E02068006820F00E002168A5
:101AE00008602068006820F00100216808605C49F7
:101AF0002068884252D95A4978392068884201D1F1
:101B0000012047E0564964392068884201D11020FD
:101B100040E0534950392068884201D1801539E0AE
:101B20004F493C392068884201D1801432E04C4949
:101B300028392068884202D14FF480302AE0484991
:101B400014392068884202D14FF4801022E04449C1
:101B50002068884201D140041CE042492068884244
:101B600001D1012016E03F4914312068884201D19B
:101B700010200FE03B4928312068884201D18015B0
:101B800008E038493C312068884201D1801401E0E6
:101B90004FF480303349091F086051E030497839EB
:101BA0002068884201D1012047E02D49643920682E
:101BB000884201D1102040E02949503920688842EC
:101BC00001D1801539E026493C392068884201D18D
:101BD000801432E0224928392068884202D14FF42B
:101BE00080302AE01E4914392068884202D14FF41F
:101BF000801022E01A492068884201D140041CE08C
:101C000018492068884201D1012016E01549143195
:101C10002068884201D110200FE012492831206845
:101C2000884201D1801508E00E493C312068884285
:101C300001D1801401E04FF48030094980394860B7
:101C4000012084F8210000BF002084F8200000BF9C
:101C5000606B10B12046616B8847284670BD00005C
:101C6000800002400804024070B5044600F0AEF95E
:101C700006462546681C10B104480078054400BF9C
:101C800000F0A4F9801BA842FAD370BD5058002080
:101C90002DE9F8470346002294466EE14FF0010813
:101CA00008FA02F4D1F8008008EA0400A0427DD1CD
:101CB000DFF8DCA2D1F80480A8EB0A09D0453AD0BD
:101CC00014DCB8F1030F50D009DCB8F1000F31D0AB
:101CD000B8F1010F1CD0B8F1020F49D120E0B8F1E2
:101CE000110F18D0B8F1120F42D11EE0B9F5881FBC
:101CF00025D006DCB9F5803F20D0B9F5801F37D15B
:101D00001AE0B9F5001F18D0B9F5041F30D117E05B
:101D1000D1F80CC02DE0D1F80C8008F1040C28E0BB
:101D2000D1F80C8008F1080C23E0D1F80C8008F100
:101D30000C0C1EE000BF00BF00BF00BF00BF00BF13
:101D4000D1F80880B8F1000F02D14FF0040C0BE07D
:101D5000D1F80880B8F1010F03D14FF0080C1C61D5
:101D600002E04FF0080C5C6103E04FF0000C00E073
:101D700000BF00BFFF2801D8984601E003F1040826
:101D80004646FF2802D84FEA820803E0A2F108087D
:101D90004FEA88084746D6F800804FF00F0909FA45
:101DA00007F928EA09080CFA07F900E088E048EA90
:101DB0000908C6F80080D1F8048008F08058B8F10E
:101DC000805F7DD100BFDFF8CC81D8F8188048F063
:101DD0000108DFF8C091C9F81880C846D8F8188003
:101DE00008F00108CDF8008000BF00BF4FEAB93805
:101DF0004FEA920958F829504FEA82784FEA187949
:101E00004FF00F0808FA09F825EA0805DFF888817D
:101E1000434502D14FF0000816E0DFF880814345CA
:101E200002D14FF001080FE0DFF87481434502D181
:101E30004FF0020808E0DFF86C81434502D14FF013
:101E4000030801E04FF004084FEA82794FEA19795C
:101E500008FA09F848EA0505DFF84C814FEA9209CB
:101E600048F82950D1F8048008F48038B8F5803F4C
:101E70000AD1DFF83881D8F8008048EA0008DFF896
:101E80002C91C9F8008009E0DFF82081D8F80080A3
:101E900028EA0008DFF81491C9F80080D1F804801E
:101EA00008F40038B8F5003F10D1DFF8008108F1E0
:101EB0000408D8F8008048EA0008DFF8F09000E055
:101EC0005AE009F10409C9F800800DE0DFF8DC8070
:101ED00008F10408D8F8008028EA0008DFF8CC9060
:101EE00009F10409C9F80080D1F8048008F48018C9
:101EF000B8F5801F0ED1DFF8B48008F10808D8F8D3
:101F0000008048EA0008DFF8A49009F10809C9F840
:101F100000800DE0DFF8948008F10808D8F8008010
:101F200028EA0008DFF8849009F10809C9F8008060
:101F3000D1F8048008F40018B8F5001F0ED1DFF8BE
:101F40006C8008F10C08D8F8008048EA0008DFF837
:101F50005C9009F10C09C9F800800DE0DFF84C80B5
:101F600008F10C08D8F8008028EA0008DFF83C9057
:101F700009F10C09C9F80080521CD1F8008028FA38
:101F800002F8B8F1000F7FF489AEBDE8F8870000D1
:101F9000000011100010024000080140000C014038
:101FA00000100140001401400800014000040140FD
:101FB000024693680B400BB1012000E000207047FF
:101FC0000AB1016101E00B04036170470148006838
:101FD000704700004858002003480068034909780A
:101FE00008440149086070474858002050580020B4
:101FF00010B50848006840F010000649086003204A
:1020000000F0A8F8002000F007F800F02BF80020FE
:1020100010BD00000020024070B504460E48007854
:102020004FF47A71B1FBF0F00C490968B1FBF0F59F
:10203000284601F0F9FE08B1012070BD102C07D22E
:1020400000222146501E00F047F80548046001E0D8
:102050000120F2E70020F0E75058002054580020FB
:102060004C58002008B500BF1148806940F00100BD
:102070000F4988610846806900F00100009000BFA8
:1020800000BF00BF0846C06940F08050C8610846E4
:10209000C06900F08050009000BF00BF00BF05493C
:1020A000486820F0E06040F00070486000BF08BD64
:1020B000001002400000014001460846002809DBEC
:1020C00000F01F0301229A4043099B0003F1E02323
:1020D000C3F8002100BF70472DE9F05F80460D4630
:1020E0001646002705F09AFD074639462A4633462C
:1020F00001F00700C0F1070ABAF1040F02D94FF04E
:10210000040A01E0C0F1070AD14600F1040ABAF15D
:10211000070F02D24FF0000A01E0A0F1030AD446F3
:102120004FF0010A0AFA09FAAAF1010A0AEA020AB8
:102130000AFA0CFA4FF0010B0BFA0CFBABF1010B96
:102140000BEA030B4AEA0B042146404605F06EFDFC
:10215000BDE8F09F00BF00F00702064B19684FF67C
:10216000FF031940044B0B4343EA0221014B196062
:1021700000BF70470CED00E00000FA050246106851
:10218000416200207047F0B5034615461868446A5E
:1021900021B944EA05401E68B06219E01868806AF7
:1021A00004EB1044002208E0186800F5827050F833
:1021B000220004EB1044501CC2B2481E9042F3D8D7
:1021C00044EA0547186800F582704E1E40F82670F4
:1021D0000020F0BD10B50446D4F8FC0304F0C7F8A5
:1021E00010BD70B504460D46C5EBC50304F13C01B6
:1021F00001EB8301CA682946D4F8FC0303F0E4FF2D
:1022000070BD70B504460D46C5EBC50304F5FE71FF
:1022100001EB8301CA682946D4F8FC0304F054F8A2
:1022200070BD10B50446D4F8FC0304F0A3F810BD4B
:1022300070B504460E4606F0800080280AD106F0EC
:102240000F00C0EBC00104F13C0000EB8105012050
:10225000687009E006F00F00C0EBC00104F5FE70E5
:1022600000EB81050020687006F00F00287000BFA9
:1022700094F8BC03012801D1022070BD012084F82C
:10228000BC0300BF2946206804F0D6FE00BF002032
:1022900084F8BC0300BF00BFEFE770B504460E46EC
:1022A00006F00F006168884201D9012070BD06F078
:1022B000800080280AD106F00F00C0EBC00104F1B5
:1022C0003C0000EB81050120687009E006F00F007A
:1022D000C0EBC00104F5FE7000EB810500206870C2
:1022E0000020A87006F00F00287000BF94F8BC030F
:1022F000012801D10220D9E7012084F8BC0300BFE6
:102300002946206805F026F900BF002084F8BC03A8
:1023100000BF00BFCAE770B504460D4600BF94F881
:10232000BC03012801D1022070BD012084F8BC0348
:1023300000BF05F08000802805D105F00F0120685E
:1023400005F016FB02E0206805F0FCFA00BF002053
:1023500084F8BC0300BF00BFE6E7024601F00F00AF
:10236000C0EBC00302F5FE7000EB8300806970478C
:102370002DE9F04705460E4690461F464FF00009EE
:1023800006F0800080280AD106F00F00C0EBC001E3
:1023900005F13C0000EB81040120607009E006F0CB
:1023A0000F00C0EBC00105F5FE7000EB81040020BA
:1023B000607006F00F002070C4F80880E770607845
:1023C00008B12078E080022F01D10020207100BFE9
:1023D00095F8BC03012802D10220BDE8F087012056
:1023E00085F8BC0300BF2146286804F053FD00BFF8
:1023F000002085F8BC0300BF4846EEE72DE9F04118
:1024000005460E461746984606F00F00C0EBC00181
:1024100005F5FE7000EB8104E760C4F8148000202D
:10242000A061607006F00F00207006F00F0020B968
:102430002146286804F096FF03E02146286805F04D
:102440001DF90020BDE8F08170B504460D4605F089
:102450000F006168884201D9012070BD05F080003D
:1024600080280AD105F00F00C0EBC00104F13C0048
:1024700000EB81060120707007E0C5EBC50104F593
:10248000FE7000EB8106002070700120B07005F036
:102490000F00307000BF94F8BC03012801D1022066
:1024A000DBE7012084F8BC0300BF3146206805F05B
:1024B00098F805F00F0020B904F57171206805F057
:1024C0001DF800BF002084F8BC0300BF00BFC4E7B4
:1024D0002DE9F04105460E461746984606F00F00D6
:1024E000C0EBC00105F13C0000EB8104E760C4F8DB
:1024F00014800020A0610120607006F00F002070A1
:1025000006F00F0020B92146286804F02BFF03E0F5
:102510002146286805F0B2F80020BDE8F0812DE9D9
:10252000FE4F044620680290029D206805F048FA9C
:1025300000287DD1206805F082FA08B9BDE8FE8F39
:10254000206805F07CFA00F00200022805D120681E
:10255000406900F0020021684861206805F06FFAC8
:1025600000F01000102846D12068806920F010008B
:10257000216888610298D0F8209009F00F00C0EB24
:10258000C00104F5FE7000EB810BC9F34340022843
:102590001AD147F6F07009EA000030B3C9F30A1205
:1025A000DBF80C10029805F04FFAC9F30A11DBF8BA
:1025B0000C000844CBF80C00C9F30A11DBF8180032
:1025C0000844CBF8180010E0C9F3434006280CD1AA
:1025D000082204F57171029805F036FAC9F30A1160
:1025E000DBF818000844CBF818002068806940F038
:1025F000100021688861206805F021FA00F40020AD
:10260000B0F5002F52D10026206805F0E8F9824687
:1026100049E00AF00100E8B3F1B2206805F002FADF
:10262000804608F0010058B1012105F5306000E056
:10263000E7E100EB461081603146204602F0A0F849
:1026400008F00800082809D1082105F5306000EBE2
:10265000461081603146204602F06CF808F0100008
:10266000102805D1102105F5306000EB461081607F
:1026700008F02000202805D1202105F5306000EB6E
:102680004610816008F40050B0F5005F08D14FF4A7
:10269000005100E004E005F5306000EB4610816079
:1026A000761C4FEA5A0ABAF1000FB2D1206805F041
:1026B000C6F900F48020B0F5802F60D1206805F0C5
:1026C00084F98246002657E00AF00100E8B3F1B22F
:1026D000206805F08EF9804608F00100B8B106F0D8
:1026E0000F0101208840019040F6340041590198C3
:1026F00021EA000040F634014851012105F510603F
:1027000000EB46108160F1B22046FFF76AFD08F049
:102710000800082805D1082105F5106000EB4610D7
:10272000816008F01000102805D1102105F5106017
:1027300000EB4610816008F04000402807D140219E
:1027400005F5106000EB461000E012E0816008F033
:102750000200022805D1022105F5106000EB4610A9
:10276000816008F08000802803D13146204602F0C5
:102770003DF8761C4FEA5A0ABAF1000FA4D120683E
:1027800005F05DF900F00040B0F1004F10D140F6C7
:102790000400405920F0010140F604004151204658
:1027A00000F048FA2068406900F000402168486164
:1027B000206805F044F900F40060B0F5006F0ED118
:1027C00040F60800405900F0010010B1204600F02A
:1027D0007DFA2068406900F4006021684861206843
:1027E00005F02DF900F48050B0F5805F7DD140F602
:1027F0000400405920F0010140F60400415110212D
:10280000206805F0B5F800273EE04FF67F3105F56A
:10281000106000EB4710816005F5106000EB471079
:10282000006820F4001105F5106000EB471001600E
:1028300005F5106000EB4710006840F0006105F5F9
:10284000106000EB471001604FF67F3105F53060F6
:1028500000EB4710816005F5306000EB4710006821
:1028600020F4001105F5306000EB4710016005F51C
:10287000306000EB4710006840F0006105F5306003
:1028800000EB471001607F1C6068B842BDD840F67D
:102890001C00405940F0011140F61C004151206BD2
:1028A00070B1D5F8840840F00B01C5F8841840F6E3
:1028B0004400405940F00B0140F6440041510FE004
:1028C00040F61400405942F22B01084340F614012F
:1028D0004851081F405940F00B014FF4016041512D
:1028E000D5F8000820F4FE6000E00CE0C5F8000810
:1028F00004F57171206804F001FE2068406900F45D
:10290000805021684861206805F099F800F4005073
:10291000B0F5005F17D1206804F024FB206805F0B3
:102920003FF8E06000F0BAFB0090227B206800993D
:1029300005F0D4F8204600F06BF92068406900F4F7
:10294000005021684861206805F079F800F008001F
:10295000082808D1204600F074F92068406900F08A
:10296000080021684861206805F069F800F48010CB
:10297000B0F5801F0AD100263146204600F043F80A
:102980002068406900F4801021684861206805F0E3
:1029900056F800F40010B0F5001F0AD100263146A9
:1029A000204600F039F82068406900F400102168E2
:1029B0004861206805F043F800F08040B0F1804F96
:1029C00008D12046FFF706FC2068406900F08040EF
:1029D00021684861206805F032F800F004000428FE
:1029E0000FD12068D0F8049009F00400042802D127
:1029F0002046FFF716FC2068406840EA090021687D
:102A0000486000BF9AE570B504460D462946D4F8E3
:102A1000FC0303F023FD70BD70B504460D46294646
:102A2000D4F8FC0303F01DFD70BD70B58AB00446F8
:102A300014B901200AB070BD266894F8BD0328B906
:102A4000002084F8BC03204600F0A2F8032084F89C
:102A5000BD03F06B00F4807008B90021216120688B
:102A600004F078FC282204F110016846FDF79AFE74
:102A700094E80F0004F08AFA20B1022084F8BD0324
:102A80000120D7E70021206804F0EFFF002531E0A6
:102A90000121C5EBC50204F13C0000EB820041704E
:102AA000C5EBC50104F13C0000F82150C5EBC501A0
:102AB00000EB8100C5800021C5EBC50204F13C009C
:102AC00000EB8200C170C5EBC50204F13C0000EBD5
:102AD00082008160C5EBC50204F13C0000EB82007E
:102AE000C160C5EBC50204F13C0000EB820041610E
:102AF000681CC5B26068A842CAD800252AE0002137
:102B0000C5EBC50204F5FE7000EB82004170C5EB19
:102B1000C50104F5FE7000F821500021C5EBC50287
:102B200000EB8200C170C5EBC50204F5FE7000EB3E
:102B300082008160C5EBC50204F5FE7000EB8200E7
:102B4000C160C5EBC50204F5FE7000EB8200416177
:102B5000681CC5B26068A842D1D8282204F11001CF
:102B60006846FDF71FFE94E80F0004F02FFB20B12C
:102B7000022084F8BD0301205CE7002084F83800BF
:102B8000012084F8BD03206804F00EFB002051E70B
:102B900010B586B004460020029003900490059082
:102BA0002068B0F1A04F2CD100BF1748806940F0D9
:102BB0000400154988610846806900F0040001900E
:102BC00000BF00BF4815029000200390049002A9A6
:102BD0000E48FFF75DF800BF0B48406940F4805095
:102BE000094948610846406900F48050019000BFDF
:102BF00000BF002211464320FFF76EFA4320FFF783
:102C00005BFA06B010BD0000001002400008014051
:102C100070B504460125E068022801D0FEF732FFB6
:102C20002946D4F8FC0303F099FCD4F8FC0303F024
:102C30004BFC70BD10B50446D4F8FC0303F072FCE5
:102C400010BD10B50446D4F8FC0303F076FC10BDAB
:102C500070B504460D4600BF94F8BC03012801D1AD
:102C6000022070BD012084F8BC0300BF84F83850F6
:102C70002946206804F014FF00BF002084F8BC033C
:102C800000BF00BFEDE710B5044604F57171D4F83C
:102C9000FC0303F07AFC10BD10B5044600BF94F8A5
:102CA000BC03012801D1022010BD012084F8BC031F
:102CB00000BF206804F03EFE206804F063FA00BF05
:102CC000002084F8BC0300BF00BFEDE710B5044648
:102CD000D4F8FC0303F0B2FC2068D0F8000E40F0FA
:102CE00001002168C1F8000E206A28B1034800687D
:102CF00040F006000149086010BD000010ED00E042
:102D00002DE9F8430446002600250027207800F02E
:102D1000010000286ED0A8467948C06900F08050B4
:102D200078B900BF7648C06940F080507449C861E6
:102D30000846C06900F08050009000BF00BF4FF00F
:102D400001087048006800F48070B8B96D480068E8
:102D500040F480706B490860FFF738F9064607E0D9
:102D6000FFF734F9801B642802D90320BDE8F883FB
:102D70006448006800F480700028F1D06048006A60
:102D800000F440752DB3A08800F44070A84220D014
:102D90005B48006A20F4407501205B490860002010
:102DA00008605748056205F0010090B1FFF70EF981
:102DB000064608E0FFF70AF9801B41F28831884295
:102DC00001D90320D2E74E48006A00F00200002833
:102DD000F0D04B48006A20F44070616808434849CD
:102DE0000862B8F1010F04D10846C06920F0805094
:102DF000C86100BF207800F00200022807D14048D7
:102E0000406820F44040A16808433D49486020786C
:102E100000F00400042807D13948C06A20F40030CB
:102E2000E16808433649C862207800F008000828A5
:102E300007D13348C06A20F4802021690843304913
:102E4000C8622F48C06A00F4003020B92C48C06A1C
:102E500000F4802000B10127012F41D128480068EB
:102E600000F0805090BB2648006800F0806040B1C0
:102E70002348C06A00F0F001A069814201D001201E
:102E800074E71F48C06A20F0F000A16908431C499C
:102E9000C8620846C06A20F4704061690843184956
:102EA000C862012019490867FFF790F8064606E056
:102EB000FFF78CF8801B642801D9032056E71048DF
:102EC000006800F000500028F2D009E0FFE70C484D
:102ED000C06A00F470406169884201D0012045E772
:102EE000207800F01000102807D10548406820F431
:102EF0008000E169084302494860002036E700008D
:102F00000010024000700040400442420000424273
:102F100070B504460D460CB9012070BD5A480068D2
:102F200000F00700A8420ED25748006820F00700C2
:102F30002843554908600846006800F00700A84289
:102F400001D00120E9E7207800F0020002281DD11D
:102F5000207800F00400042805D14C48406840F473
:102F6000E0604A494860207800F00800082805D150
:102F70004648406840F460504449486043484068CF
:102F800020F0F000A168084340494860207800F034
:102F9000010078B36068012806D13C48006800F45D
:102FA000003090B90120B8E76068022806D13748A0
:102FB000006800F0007040B90120AEE733480068B7
:102FC00000F0020008B90120A7E73048406820F06F
:102FD0000300616808432D494860FEF7F7FF064685
:102FE00009E0FEF7F3FF801B41F28831884202D9E5
:102FF000032092E707E02548406800F00C00616874
:10300000B0EB810FEDD12048006800F00700A84226
:103010000ED91D48006820F0070028431A490860AF
:103020000846006800F00700A84201D0012074E7BC
:10303000207800F00400042807D11448406820F4E8
:10304000E060E168084311494860207800F008001A
:10305000082808D10D48406820F46050216940EAF2
:10306000C1000A49486000F03FF808494968C1F3C7
:103070000311074A515CC8400649086006480068C9
:10308000FEF7CAFF002048E700200240001002407F
:1030900056F40008545800204C580020014800689D
:1030A000704700005458002000B5FFF7F7FF0449AF
:1030B0004968C1F30221034A515CC84000BD0000C9
:1030C0000010024066F4000800B5FFF7E7FF04496E
:1030D0004968C1F3C221034A515CC84000BD0000E9
:1030E0000010024066F400082DE9F04F8BB03CA2BE
:1030F000D2E901311068D268CDE908310A9207900F
:103100003BA3D3E90020D3E9021304AC0BC4039220
:103110004FF00009CB46CA460024002002900190DF
:1031200000903748D0F8049009F00C0000284FD0E8
:10313000042802D008284AD102E0324802904AE02E
:1031400007A8C9F38341445C09F48030C0B32C481C
:10315000C06A00F00F0003A911F800B02848C06A47
:1031600000F4803008B32648C06AC0F30310401C46
:1031700001902348C06AC0F30320801C009001988E
:10318000A0FB0B5006461F490098A1FB002100231D
:10319000A2FB047C01FB04C102FB03112A46334657
:1031A0003846FDF7CDF8824603E016486043B0FB91
:1031B000FBFA9DF82900A04206D14FEA5A0A03E023
:1031C000FFE7114804FB00FACDF808A003E000BFB8
:1031D0000C48029000BF00BF02980BB0BDE8F08F12
:1031E000000004050607080900000000000D0000AB
:1031F0000102030405060708090A0B0C0D0E0F1047
:103200000010024000127A0000093D00F8B50446A3
:103210000CB90120F8BD207800F00100002878D01A
:10322000FD48406800F00C0004280CD0FA484068C3
:1032300000F00C00082811D1F748406800F48030F5
:10324000B0F5803F0AD1F448006800F4003000284F
:103250005FD0A06800285CD10120DBE700BFA06838
:10326000B0F5803F06D1EC48006840F48030EA4970
:10327000086028E0A06858B9E748006820F480306A
:10328000E54908600846006820F4802008601AE0DC
:10329000A068B0F5A02F0BD1DF48006840F4802073
:1032A000DD4908600846006840F4803008600AE0A4
:1032B000D948006820F48030D74908600846006883
:1032C00020F48020086000BFA06888B1FEF77EFE71
:1032D000054606E0FEF77AFE401B642801D903206C
:1032E00098E7CD48006800F400300028F2D010E0E4
:1032F000FEF76CFE054606E0FEF768FE401B6428FC
:1033000001D9032086E7C448006800F40030002893
:10331000F2D1207800F00200022857D1BE48406860
:1033200000F00C0050B1BC48406800F00C000828C8
:1033300018D1B948406800F4803098B9B6480068A0
:1033400000F0020020B16069012801D0012061E78E
:10335000B148006820F0F800A16940EAC100AE4918
:10336000086033E06069E8B10120AC490860FEF70D
:103370002DFE054606E0FEF729FE401B022801D976
:10338000032047E7A448006800F002000028F2D0BC
:10339000A148006820F0F800A16940EAC1009E49F8
:1033A000086013E000209D490860FEF70FFE054607
:1033B00006E0FEF70BFE401B022801D9032029E797
:1033C0009548006800F002000028F2D1207800F053
:1033D000080008282DD1E069B8B1012090490860A3
:1033E000FEF7F4FD054606E0FEF7F0FD401B02285F
:1033F00001D903200EE78848406A00F00200002847
:10340000F2D0012001F04CFA13E00020844908605A
:10341000FEF7DCFD054606E0FEF7D8FD401B02285E
:1034200001D90320F6E67C48406A00F0020000283B
:10343000F2D1207800F00400042873D100277648E8
:10344000C06900F0805070B900BF7348C06940F097
:1034500080507149C8610846C06900F080500090F2
:1034600000BF00BF01276F48006800F48070B0B94A
:103470006C48006840F480706A490860FEF7A6FD59
:10348000054606E0FEF7A2FD401B642801D9032093
:10349000C0E66448006800F480700028F2D000BFE5
:1034A0002069012806D15C48006A40F001005A49B1
:1034B000086227E0206958B95748006A20F00100E7
:1034C000554908620846006A20F00400086219E0C5
:1034D000206905280BD15048006A40F004004E498D
:1034E00008620846006A40F0010008620AE04A48A3
:1034F000006A20F00100484908620846006A20F08E
:103500000400086200BF2069A0B1FEF75FFD054618
:1035100009E0FEF75BFD401B41F28831884202D989
:10352000032077E622E03C48006A00F00200002811
:10353000EFD012E0FEF74AFD054608E0FEF746FD33
:10354000401B41F28831884201D9032062E63248AB
:10355000006A00F002000028F0D1012F05D12E48AA
:10356000C06920F080502C49C86100BFE06AA0B358
:103570002948406800F48030B0F5803F0ED12648DD
:10358000406800F00C00082808D12348C06A00F405
:103590008030B0F5803F01D101203BE6E06A02288F
:1035A00050D11D48006800F0805040B11A48C06AF0
:1035B00000F0F001606B814201D001202AE600207A
:1035C00016498866FEF702FD054607E0FEF7FEFC99
:1035D000401B642802D903201CE64DE00E48006819
:1035E00000F000600028F1D10B48C06A20F0F00024
:1035F000616B08430849C8620846C06A20F47060DD
:10360000216B08430449C862012004498866FEF71B
:10361000DDFC05460FE000000010024000004242C1
:103620008004424200700040FEF7D0FC401B64283A
:1036300001D90320EEE54E48006800F00060002844
:10364000F2D019E04A48C06A20F480304849C86284
:10365000002048498866FEF7B9FC054606E0FEF7FB
:10366000B5FC401B642801D90320D3E5404800681D
:1036700000F000600028F2D1206AE0B33C484068C6
:1036800000F00C0008285ED0206A022846D10020F5
:1036900038490866FEF79AFC054606E0FEF796FCF8
:1036A000401B022801D90320B4E53148006800F02E
:1036B00000700028F2D1606AB0F5803F0DD12C482F
:1036C000C06A616808432A49C8620846C06A20F097
:1036D0000F00E16808432649C862D4E9090108439C
:1036E0002349496821F474110843214948600120A5
:1036F0002049086600E038E0FEF768FC054606E071
:10370000FEF764FC401B022801D9032082E518481B
:10371000006800F000700028F2D026E00020154973
:103720000866FEF753FC054606E0FEF74FFC401B1B
:10373000022801D903206DE50D48006800F00070F3
:103740000028F2D111E0206A012800D162E5084882
:10375000466806F48031606A814204D106F4701133
:10376000A06A814201D0012054E5002052E500000A
:10377000001002400000424210B504460CB901207E
:1037800010BD606A38B96068B0F5827F00D105E08D
:103790000021E16102E00021216161610021A1625B
:1037A00094F8510028B9002084F85000204600F019
:1037B00043F8022084F851002068006820F040009F
:1037C00021680860A08800F48270218901F4044116
:1037D0000843A18901F400610843217C01F0020142
:1037E0000843217D01F001010843218B01F40071A0
:1037F0000843217F01F0380108432021095D01F0D1
:1038000080010843218D01F40051084321680860BC
:103810000421A06901EA1040216848602068C0695D
:1038200020F400602168C86100206065012084F8F0
:1038300051000020A4E7000010B586B00446002027
:1038400002900390049005902249206888423FD15D
:1038500000BF2148806940F480501F4988610846B4
:10386000806900F48050019000BF00BF00BF08468F
:10387000806940F0040088610846806900F0040017
:10388000019000BF00BFA0200290022003900320FF
:10389000059002A91148FEF7FBF940200290002094
:1038A00003900120049002A90C48FEF7F1F90022D0
:1038B00010210A48FEF784FB10200290012003909B
:1038C000002004900220059002A90448FEF7E0F9C8
:1038D00006B010BD00300140001002400008014059
:1038E0002DE9F8430446884616461D464FF0000968
:1038F0006068B0F5827F0DD1A06858B9042084F8C3
:1039000051003346424641462046009500F077F983
:10391000BDE8F88300BF94F85000012801D10220CF
:10392000F6E7012084F8500000BFFEF74FFB074682
:1039300094F85100012802D04FF002097EE0B8F15E
:10394000000F00D016B94FF0010977E0042084F889
:10395000510000206065C4F83880A687E6872063A0
:10396000A086E08620646064A068B0F5004F0BD1AB
:103970002068006820F04000216808602068006826
:1039800020F48040216808602068006800F0400052
:10399000402805D02068006840F040002168086099
:1039A000E068F8B91AE02068806800F0010050B1C2
:1039B0002068007BA16B0870A06B401CA063E08FA7
:1039C000401EE0870AE0FEF701FBC01BA84201D3BE
:1039D000681C00B915B94FF003092FE0E08F0028EB
:1039E000E1D11EE01AE02068806800F0010050B1CB
:1039F0002068C068A16B0880A06B801CA063E08F6A
:103A0000401EE0870AE0FEF7E1FAC01BA84201D39E
:103A1000681C00B915B94FF003090FE0E08F0028CA
:103A2000E1D13A462946204601F038FB08B1202072
:103A30006065606D08B14FF0010900BF012084F896
:103A4000510000BF002084F8500000BF48465FE7E7
:103A50002DE9F84F0446884616461D464FF0000AE9
:103A600000BF94F85000012802D10220BDE8F88F71
:103A7000012084F8500000BFFEF7A8FA0746B146BF
:103A800094F85100012802D04FF0020AADE0B8F1DD
:103A9000000F00D016B94FF0010AA6E0032084F809
:103AA000510000206065C4F83080A686E686A063D9
:103AB000A087E08760642064A068B0F5004F0BD158
:103AC0002068006820F040002168086020680068D5
:103AD00040F48040216808602068006800F04000E1
:103AE000402805D02068006840F040002168086048
:103AF000E068B0F5006F2FD1606810B1B9F1010F27
:103B000009D1206B00882168C860206B801C20636D
:103B1000E08E401EE0861BE02068806800F0020016
:103B200002280AD1206B00882168C860206B801CA5
:103B30002063E08E401EE0860AE0FEF747FAC01BD5
:103B4000A84201D3681C00B915B94FF0030A4CE034
:103B5000E08E0028E0D12EE0606810B1B9F1010FCD
:103B600009D1206B007821680873206B401C20630A
:103B7000E08E401EE0861BE02068806800F00200B6
:103B800002280AD1206B007821680873206B401C42
:103B90002063E08E401EE0860AE0FEF717FAC01BA5
:103BA000A84201D3681C00B915B94FF0030A1CE004
:103BB000E08E0028E0D13A462946204601F0AAFAD4
:103BC00008B120206065A06850B900BF00200090B7
:103BD0002068C068009020688068009000BF00BF27
:103BE000606D08B14FF0010A00BF012084F8510058
:103BF00000BF002084F8500000BF504636E72DE992
:103C0000FF5F0446884691461D460E9E01200290A5
:103C10000020019000BF94F85000012803D1022039
:103C200004B0BDE8F09F012084F8500000BFFEF70B
:103C3000CDF9074694F851B060680390AA46BBF1ED
:103C4000010F0BD00398B0F5827F04D1A06810B9A2
:103C5000BBF1040F02D002200190DBE0B8F1000FAD
:103C600003D0B9F1000F00D015B901200190D1E0C7
:103C700094F85100042802D0052084F85100002057
:103C80006065C4F83890E587A587C4F83080E5867C
:103C9000A586206460642068006800F04000402829
:103CA00005D02068006840F0400021680860E068A6
:103CB000B0F5006F4AD1606810B1BAF1010F09D1B7
:103CC000206B00882168C860206B801C2063E08E18
:103CD000401EE08633E02068806800F00200022881
:103CE00010D1E08E70B1029801280BD1206B0088B2
:103CF0002168C860206B801C2063E08E401EE08637
:103D0000002002902068806800F0010068B1E08F18
:103D100058B12068C068A16B0880A06B801CA063AC
:103D2000E08F401EE08701200290FEF74FF9C01B94
:103D3000B04204D3701C10B1032001906AE0E08E01
:103D40000028C8D1E08F0028C5D14AE0606810B1D2
:103D5000BAF1010F09D1206B007821680873206B3C
:103D6000401C2063E08E401EE08634E020688068BE
:103D700000F00200022810D1E08E70B102980128F4
:103D80000BD1206B007821680873206B401C2063E6
:103D9000E08E401EE086002002902068806800F0DF
:103DA000010068B1E08F58B12068C068A16B08704D
:103DB000A06B401CA063E08F401EE08701200290B2
:103DC000FEF704F9C01BB04201D3701C00B916B94C
:103DD000032001901EE0E08E0028C7D1E08F00286C
:103DE000C4D13A463146204601F094F920B1012071
:103DF0000190202060650DE0A06850B900BF002050
:103E000000902068C068009020688068009000BF23
:103E100000BF00BF012084F8510000BF002084F8DB
:103E2000500000BF0198FBE670B504462546681EA9
:103E3000B0F1807F01D301200FE0681E4FF0E02138
:103E400048610F214FF0FF3003F0F0FE00204FF0EB
:103E5000E021886107200861002070BD70470000E4
:103E60002DE9F0470446206805682068C668206888
:103E700047694FF00008C14605F00F08B8F1000F80
:103E80000AD105F0200038B106F0200020B120460C
:103E900001F084FDBDE8F087B8F1000F71D007F0A4
:103EA000010018B906F4907000286AD005F00100EE
:103EB00030B106F4807018B1E06B40F00100E063AF
:103EC00005F0040030B107F0010018B1E06B40F0DC
:103ED0000200E06305F0020030B107F0010018B104
:103EE000E06B40F00400E06305F0080048B106F024
:103EF000200010B907F0010018B1E06B40F0080095
:103F0000E063E06B68B305F0200028B106F0200004
:103F100010B1204601F042FD20684069C0F38019CD
:103F2000E06B00F0080010B9B9F1000F22D0204674
:103F300001F014FD2068406900F04000B0B1206835
:103F4000406920F0400021684861606B50B118481A
:103F5000616B4863606BFDF7B3FD10B1606B416B43
:103F600088470CE02046FFF779FF08E02046FFF77E
:103F700075FF04E02046FFF771FF0020E06389E74A
:103F8000FFE705F0800030B106F0800018B1204650
:103F900001F0D2FD7EE705F0400030B106F04000B0
:103FA00018B1204601F0EAFC74E700BF72E7000098
:103FB0004959000810B504460CB9012010BDA0698C
:103FC00000B100E000BF94F8390028B9002084F85F
:103FD0003800204600F028F8242084F839002068B2
:103FE000C06820F400502168C860204601F026FD1A
:103FF0002068006920F490402168086120684069C9
:1040000020F02A00216848612068C06840F4005010
:104010002168C8600020E063202084F8390084F81B
:104020003A000020CAE7000010B586B00446002020
:1040300002900390049005902249206888423ED166
:1040400000BF2148806940F480401F4988610846CC
:10405000806900F48040019000BF00BF00BF0846A7
:10406000806940F0080088610846806900F0080017
:10407000019000BF00BF4020029002200390032067
:10408000059002A91148FDF703FE80200290002050
:104090000390049002A90D48FDF7FAFD00BF0C49FA
:1040A000486840F0E06040F00400486000BF002233
:1040B00011462520FEF710F82520FDF7FDFF06B07C
:1040C00010BD00000038014000100240000C01400B
:1040D0000000014010B5034693F83A0020282FD184
:1040E00001B10AB9012010BD00BF93F838000128C2
:1040F00001D10220F7E7012083F8380000BF996260
:104100009A85DA850020D863222083F83A0000BF20
:10411000002083F8380000BF1868C06840F4807041
:104120001C68E0601868406940F001001C6860612C
:104130001868C06840F020001C68E0600020D2E7EA
:104140000220D0E770472DE9F84F04460E46174687
:1041500099464FF0000A94F8390020285AD106B148
:1041600017B90120BDE8F88F00BF94F83800012886
:1041700001D10220F6E7012084F8380000BF0020BA
:10418000E063212084F83900FDF720FF8246A784F0
:10419000E784A068B0F5805F04D1206910B90025DC
:1041A000B04602E035464FF0000800BF002084F81A
:1041B000380000BF1BE05346002280212046CDF886
:1041C000009001F0E9FC08B10320CBE745B9B8F84D
:1041D0000000C0F308002168486008F1020803E00D
:1041E0002878216848606D1CE08C401EE084E08CDB
:1041F0000028E0D15346002240212046CDF800900F
:1042000001F0CAFC08B10320ACE7202084F8390093
:104210000020A7E70220A5E7704700BFFEE730B502
:104220000B46002100BF16E00A24B4EB107F05D92D
:10423000302404EB107403F8114005E0412404EB32
:1042400010740A3C03F81140000100254C00641C66
:104250001D554C1CE1B29142E6DB30BD70B5054600
:10426000D5F8B8424FF40670005D48B94FF40570B8
:10427000005928B1607A18B90121284602F0BCF92A
:104280008121284602F0B8F9607A022806D11F235E
:1042900004F503720121284602F0FEF870BD00000B
:1042A00070B50546D5F8B8424FF4047001594FF483
:1042B0000C7001514FF4057001594FF40D7001510C
:1042C0000121284602F076F81F2810D12A49D4F897
:1042D0000C0288420BD140F21920005D012806D85B
:1042E0004815005D18B14815005D10280DD940F241
:1042F0001920015D20230522284600F0C9FD022077
:1043000060722846FFF7AAFF33E040F21920015DF2
:1043100004F21B22284600F04FFB00280BDA207A1B
:10432000052804D10121284600F0C0F821E02846E4
:10433000FFF794FF1DE0207A022819D0207A012887
:1043400016D0207A032813D0608930B1628904F135
:104350000C01284600F0C8F80BE0608920B9002164
:10436000284600F0A3F804E02846FFF777FF00E0B6
:1043700070BD00BFFCE700005553424370B50646D0
:104380000D46D6F8B842607A022806D1812130461F
:1043900002F032F9002060720CE005F08000802805
:1043A00007D1607A012804D00121304600F07EF860
:1043B00000E070BD00BFFCE770B505460E46D5F8BD
:1043C000B842207A022804D0032812D0042815D13C
:1043D0000EE040F21920015D04F21B22284600F095
:1043E000EBFA002803DA0121284600F05FF806E026
:1043F00000BF0021284600F059F800E000BF00BFD0
:1044000070BD70B505460E46D5F8B842207A10B199
:10441000012813D103E02846FFF742FF0FE040F2E6
:104420001920015D04F21B22284600F0C5FA00287D
:1044300003DA0121284600F039F800E000BF00BF90
:1044400070BDD0F8B81200220A72704770B50546E8
:10445000D5F8B84200202072607284F85D0284F8BA
:104460005C02D5F8BC02016800208847012128467B
:1044700001F08DFF8121284601F089FF1F2304F5FB
:1044800003720121284602F007F870BD70B5054699
:10449000D5F8B84200202072012060721F2304F575
:1044A00003720121284601F0F7FF70BD70B5054683
:1044B0000E46D5F8B8420B48C4F82C024FF40E70E3
:1044C0000655002020720D2304F50B728121284629
:1044D00002F0BEF81F2304F503720121284601F003
:1044E000DBFF70BD555342532DE9F04106460F46A0
:1044F0001546D6F8B8424FF405700059A84203D2C9
:104500004FF40570005900E028461FFA80F84FF478
:104510000D700059411B4FF40D7001510021001D19
:1045200001550420207243463A468121304602F06C
:104530008FF8BDE8F081000000B585B00020019043
:1045400002900390049000BF4948806940F0100039
:10455000474988610846806900F01000009000BF5C
:1045600000BF00BF0846806940F02000886108460F
:10457000806900F02000009000BF00BF00BF084627
:10458000806940F0040088610846806900F00400FA
:10459000009000BF00BF00BF0846806940F00800DF
:1045A00088610846806900F00800009000BF00BFE5
:1045B00001224FF4C0412F48FDF702FD01221021D6
:1045C0002D48FDF7FDFC012245F201012B48FDF7C6
:1045D000F7FC002208212948FDF7F2FC4FF4C04007
:1045E000019001200290002003900320049001A973
:1045F0002048FDF74DFB1020019001200290002083
:1046000003900320049001A91B48FDF741FB1020F3
:104610000190002002900120039001A91548FDF7A8
:1046200037FB45F201000190012002900020039029
:104630000320049001A91148FDF72AFB4FF4204004
:104640000190002002900120039001A90B48FDF782
:104650001FFB0820019001200290002003900220FF
:10466000049001A90548FDF713FB05B000BD00004B
:10467000001002400010014000080140000C014001
:1046800010B51648164908604FF482704860002142
:1046900013488160C160016141614FF40071816123
:1046A0001021C16100210162416281620A21C1625F
:1046B0000068006820F0400009490968086008485F
:1046C000FFF75AF808B1FDF7DDF905480068006802
:1046D00040F0400002490968086010BD0030014008
:1046E000C865002010B50B480B4908604FF4E13055
:1046F0004860002108488160C16001610C2141616E
:1047000000218161C161FFF755FC08B1FDF7BAF9DD
:1047100010BD0000003801402066002000BFFEE709
:1047200000BFFEE710B50248FDF7F9FE10BD00001E
:10473000089500202DE9F04707460C463D682E46B7
:10474000D5F8408006F5306000EB4410D0F80890B2
:104750000A4880450BD909F40040B0F5004F06D156
:104760004FF4004106F5306000EB4410816038469C
:10477000FEF789FA0020BDE8F08700000A30544FA8
:104780002DE9F04707460C463E683546D6F840907E
:1047900005F5306000EB4410D0F8088012488145E0
:1047A0001BD108F40040B0F5004F07D14FF4004191
:1047B00005F5306000EB4410816012E008F0200045
:1047C000202805D1202105F5306000EB44108160E0
:1047D000E1B23846FDF715FD03E0E1B23846FDF7DA
:1047E00010FD0020BDE8F0870A31544F2DE9F05F3D
:1047F00007460E46D7F80090C846C6EBC60107F13B
:104800003C0000EB8104D4E90510884202D9012064
:10481000BDE8F09FD4E90501451AA068A84200D27E
:10482000A568E81C4FEA900A15E0D4E90501451A8D
:10483000A068A84200D2A568E81C4FEA900AABB273
:10484000F2B24846E16803F0BBF9E0682844E06052
:10485000A0692844A06108F5106000EB461080694B
:1048600080B2504506D3D4E90510884202D260696F
:104870000028DAD1D4E9050188420ED806F00F01EC
:10488000012000FA01FB40F6340050F8080020EA4D
:104890000B0040F6340141F808000020B8E77047EB
:1048A00008B508490968C9084FF47A72B1FBF2F1FA
:1048B0004143009100BF00BF00994A1E00920029A9
:1048C000F9D108BD545800202DE9F04104460F46A7
:1048D00015461E46D4F8B882A819D8F86012884246
:1048E00009D9212305223946204600F0D1FA4FF09C
:1048F000FF30BDE8F0810020FBE70000F0B5044682
:104900000E46D4F8B832507800F0010060B10721AB
:10491000598106E0481E81B21048475C03F10C0043
:1049200047540029F6D116E0D4F8BC02C06906EB62
:10493000C60700EB87052879411D1079884200DC05
:104940001179598105E0481E81B26F5C03F10C00BA
:1049500047540029F7D10020F0BD00006EF4000894
:1049600070B503460C4615460821D3F8B82251818C
:1049700006E0481E81B20448465C02F10C00465431
:104980000029F6D1002070BD7DF4000870B5034603
:104990000C461546D3F8B8220821518106E0481E7E
:1049A00081B20448465C02F10C0046540029F6D15D
:1049B000002070BD75F4000870B505460E4614461B
:1049C0002078232845D00DDC1A2836D005DCB0B17C
:1049D00003281AD012285AD11DE01B2821D01E28E6
:1049E00055D124E02A2846D004DC252837D02828B1
:1049F0004DD13AE02F2844D05A2848D123E022460E
:104A00003146284600F06CFA4AE0224631462846F4
:104A100000F0FBF944E0224631462846FFF76EFFDE
:104A20003EE022463146284600F052FA38E022465F
:104A30003146284600F04CFA32E0224631462846FC
:104A4000FFF7A4FF2CE0224631462846FFF788FFF7
:104A500026E022463146284600F092F920E0224620
:104A60003146284600F04CF91AE0224631462846E5
:104A700000F0DDF814E022463146284600F081FAC5
:104A80000EE022463146284600F055FA08E0202381
:104A900005223146284600F0FBF94FF0FF3070BD8B
:104AA00000BF0020FBE72DE9F04106460F46D6F88F
:104AB000B842B4F85E12D4F8680200FB01F5B5F50F
:104AC000007F01D2284601E04FF400700546B4F89B
:104AD0005E02B5FBF0F01FFA80F8D4F86422D6F835
:104AE000BC02434604F10C01D0F810C03846E04740
:104AF000002809DA112304223946304600F0C8F9AB
:104B00004FF0FF30BDE8F081ABB204F10C0281211F
:104B1000304601F09DFDB4F85E02B5FBF0F0D4F82C
:104B200064120844C4F86402B4F85E02B5FBF0F005
:104B3000D4F86812081AC4F868024FF40D700059CE
:104B4000411B4FF40D700151D4F8680208B90320DD
:104B500020720020D6E72DE9F04106460F46D6F830
:104B6000B842B4F85E12D4F8680200FB01F5B5F55E
:104B7000007F01D2284601E04FF400700546B4F8EA
:104B80005E02B5FBF0F01FFA80F8D4F86422D6F884
:104B9000BC02434604F10C01D0F814C03846E0478B
:104BA000002809DA032304223946304600F070F960
:104BB0004FF0FF30BDE8F081B4F85E02B5FBF0F0D5
:104BC000D4F864120844C4F86402B4F85E02B5FB79
:104BD000F0F0D4F86812081AC4F868024FF40D70A7
:104BE0000059411B4FF40D700151D4F8680220B9EF
:104BF00000213046FFF75AFC17E0B4F85E12D4F8F3
:104C000068024843B0F5007F05D2B4F85E12D4F8CC
:104C10006802484301E04FF400700546ABB204F16E
:104C20000C020121304601F037FC0020C2E72DE9DB
:104C3000F04106460F461546D6F8B842207A0028BD
:104C400056D14FF40670005D00F0800080280BD034
:104C500040F21920015D20230522304600F018F9AA
:104C60004FF0FF30BDE8F081D6F8BC0281683846CD
:104C7000884740B13A2302223946304600F008F90D
:104C80004FF0FF30EEE7A8780006E97840EA0140EF
:104C9000297940EA012069790843C4F86402287A36
:104CA000E97940EA0120C4F868023946304604F543
:104CB00019720CCAFFF708FE002802DA4FF0FF3025
:104CC000D0E702202072B4F85E12D4F8680248439C
:104CD0004FF40571095988420AD040F21920015D4C
:104CE00020230522304600F0D3F84FF0FF30B9E71B
:104CF0004FF40070608139463046FFF7D4FEB1E7CB
:104D00002DE9F04105460E461746D5F8B842D5F8CC
:104D1000BC0204F25E22911C43683046984748B1B9
:104D20003A2302223146284600F0B2F84FF0FF3015
:104D3000BDE8F081D4F86002401E000E2073D4F864
:104D40006002401E010C6173B4F86002401E010A4B
:104D5000A17394F86002401EE073B4F85E0201167D
:104D60002174B4F85E0201146174B4F85E02011299
:104D7000A17494F85E12E174082060810020D7E7E6
:104D80002DE9FC4105460F469046D5F8B84200266D
:104D900005E0002104F10C008155701C86B20C2E38
:104DA000F7D3D5F8BC0201AA69464368384698474C
:104DB00048B13A2302223946284600F069F84FF0FC
:104DC000FF30BDE8FC810821E1730098401E010E10
:104DD00021740098401E010C61740098401E010A65
:104DE000A1740098401EE07402212175BDF80400F2
:104DF00001146175BDF804000112A175BDF804002D
:104E0000E0750C2060810020DBE770B504460D469C
:104E1000D4F8B812002305E0002601F10C00C654B6
:104E2000581CC3B2122BF7D3702008730C26CE7413
:104E300091F85C0291F85D62B04220D091F85C621A
:104E400001F50F7010F836608E7391F85C6200EB1C
:104E5000C60046790E7691F85C6201F50F7000EBA2
:104E6000C60006794E7691F85C02401C81F85C021F
:104E700091F85C02042802D1002081F85C02122023
:104E800048811079122801D810794881002070BD1E
:104E9000F0B50446D4F8B80290F85D6200F50F75DD
:104EA00005F836201D02EEB290F85D7200F50F7520
:104EB00005EBC7052E7190F85D526D1C80F85D52B0
:104EC00090F85D52042D02D1002580F85D52F0BDAE
:104ED00010B503460C46D3F8B8120020488110BD27
:104EE0002DE9F04105460E461746D5F8B8424FF475
:104EF0000570005958B140F21920015D20230522A8
:104F00002846FFF7C5FF4FF0FF30BDE8F081D5F828
:104F1000BC0281683046884748B13A2302223146B4
:104F20002846FFF7B5FF05202072801FEDE700201F
:104F3000608100BFE9E72DE9F04105460F461646BE
:104F4000D5F8B842707800F00200022809D1242375
:104F5000052239462846FFF79BFF4FF0FF30BDE89A
:104F6000F0813946284604F519720CCAFFF7ACFCEB
:104F7000002802DA4FF0FF30F1E70020608100BF27
:104F8000EDE72DE9F041064688461546D6F8B842C9
:104F9000207A002877D14FF40670005D00F0800081
:104FA00080280BD140F21920015D202305223046D4
:104FB000FFF76EFF4FF0FF30BDE8F081D6F8BC027E
:104FC00081684046884740B13A2302224146304634
:104FD000FFF75EFF4FF0FF30EEE7D6F8BC02C16886
:104FE0004046884740B12723022241463046FFF71A
:104FF0004FFF4FF0FF30DFE7A8780006E97840EA7E
:105000000140297940EA012069790843C4F8640223
:10501000287AE97940EA0120C4F86802414630461E
:1050200004F519720CCAFFF74FFC002802DA4FF0A2
:10503000FF30C1E7B4F85E12D4F8680200FB01F754
:105040004FF405700059B8420AD040F21920015DB2
:10505000202305223046FFF71BFF4FF0FF30ABE760
:10506000B7F5007F01D2384601E04FF400700746E3
:1050700001202072BBB204F10C020121304601F084
:105080000BFA05E0FFE741463046FFF764FD93E782
:10509000002091E70120704701207047F8B50446D1
:1050A0000E4615466068B0F5827F0DD1A068B0F558
:1050B000004F03D0A068B0F5806F05D1206800686C
:1050C00020F04000216808606068B0F5827F11D14F
:1050D000A068B0F5806F0DD1334600220121204633
:1050E000009500F083F898B1606D40F02000606595
:1050F0000320F8BD3346002280212046009500F0B1
:1051000075F828B1606D40F0200060650320F0E77D
:105110000020EEE7F8B504460D4616462B46002261
:1051200080212046009600F061F828B1606D40F0C3
:10513000200060650320F8BD0020FCE72DE9F04168
:1051400004460E4617469846206800F0400008B90D
:10515000BDE8F081FCF73AFF054621E000BFA068FA
:1051600000F0020018B1A06800F0800028B1FCF740
:105170002DFF401BB0F5FA7FF1D3277300BFA06865
:1051800000F0010018B1A06800F0800028B1FCF721
:105190001DFF401BB0F5FA7FF1D3207B06F8010B11
:1051A000B8F10000A8F10108D8D100BFD0E770B570
:1051B00004460D46FCF70AFF0646E56000BFA068FE
:1051C00000F0010020B9FCF701FF801BC828F6D3CE
:1051D00000BFA06800F0800020B1FCF7F7FE801B44
:1051E000C828F6D3E068C0B270BD00002DE9F84FC2
:1051F00004460D4690461E46DDF82890FCF7E6FE74
:10520000A0EB0900371AFCF7E1FE82462C48006843
:10521000C0F3CB307843009045E0701C002842D0AA
:10522000FCF7D4FEA0EB0A00B84200D2A7BB20686E
:10523000406820F0E000216848606068B0F5827F37
:105240000DD1A068B0F5004F03D0A068B0F5806F15
:1052500005D12068006820F0400021680860A06A3D
:10526000B0F5005F0DD100BF2068006820F4005049
:10527000216808602068006840F4005021680860D8
:1052800000BF012084F8510000BF002084F85000C6
:1052900000BF0320BDE8F88FFFE7009800B90027A2
:1052A0000098401E0090206880682840A84201D1E4
:1052B000012000E000204045AFD10020EAE70000D7
:1052C000545800202DE9F04104460E461746206848
:1052D00000F0400008B9BDE8F081FCF777FE054614
:1052E00021E000BFA06800F0020018B1A06800F043
:1052F000800028B1FCF76AFE401BB0F5FA7FF1D3BD
:1053000016F8010B207300BFA06800F0010018B16F
:10531000A06800F0800028B1FCF758FE401BB0F5F3
:10532000FA7FF1D3A089381EA7F10107D9D100BFB8
:10533000D1E703464FF400500860001110800020B0
:10534000704700207047014600207047014600204A
:1053500070470146002070472DE9F04107460C4692
:1053600015461E4633462A462146034804F0F4FEFD
:105370000020BDE8F0810000588100202DE9F041B7
:1053800007460C4615461E4633462A462146034824
:1053900004F028FF0020BDE8F081000058810020C3
:1053A000704710B5FCF718FE03F084FD10BD000037
:1053B00000B59BB038210DA8FBF750FA142108A8BE
:1053C000FBF74CFA20216846FBF748FA01200D90C4
:1053D00000040F90002010900120129000200E90E9
:1053E00002201590C10316914FF4E011179100208F
:1053F00018900DA8FDF70AFF08B1FCF743FB0F203A
:1054000008900220099000200A904FF480600B90D1
:1054100000200C90022108A8FDF77AFD08B1FCF7E6
:1054200031FB10200090002007906846FDF768FCD3
:1054300008B1FCF727FB0120014908671BB000BD3C
:105440000000424270470000F8B501221021524886
:10545000FCF7B6FD0120FCF707FCFCF7B7FD07469B
:10546000FFF718FE08B90220F8BD0A2405E0FF2165
:105470004A48FFF79CFE601EC4B2002CF7D10026FC
:105480000021084608F080F9012862D14FF4D57157
:10549000082008F079F901283CD100BF07E0FF217E
:1054A0003E48FFF784FE0DF80400601CC4B2042CD3
:1054B000F5DB9DF8020001284BD19DF80300AA28D6
:1054C00047D100BFFCF782FDC01BB0F5FA7F06D2C2
:1054D0004FF08041A92008F057F90028F2D10021AF
:1054E0003A2008F051F9A0BB002407E0FF212B4827
:1054F000FFF75DFE0DF80400601CC4B2042CF5DB60
:105500009DF8000000F0400008B10C2000E00420ED
:1055100006461EE00021A92008F036F9012802DC29
:105520000226A92501E00126012500BFFCF74EFD5A
:10553000C01BB0F5FA7F05D20021284608F024F9F7
:105540000028F3D14FF40071102008F01DF900B1CC
:1055500000261348067004F0CBF836B111480078E5
:1055600020F001000F49087002E001200D49087089
:10557000FFF792FD30B90B48007840F0040009496C
:10558000087005E00748007820F00400054908701D
:105590000448007868E7000000080140003001403E
:1055A000C5590020C45900202DE9FF5F07460C466D
:1055B0008448007800F0010018B1032004B0BDE871
:1055C000F09FFFF767FD08B90320F7E74FF0010BE5
:1055D000052F7DD2DFE807F0030F0956B10008F070
:1055E000B9F808B14FF0000BE6E04FF400702080EE
:1055F0004FF0000BE0E00021092008F0C5F8E8BBFF
:105600001021684607F0F0FAC0B39DF800000121B0
:10561000B1EBA01F0FD19DF809009DF8081000EB19
:1056200001209DF8071001F03F0100EB0140461CEE
:10563000B002206021E09DF8050000F00F009DF809
:105640000A1000EBD1109DF8091001F0030100EBE6
:105650004100851C9DF8080080119DF8071000EBA3
:1056600081009DF8061001F0030100EB8120461C2B
:10567000A5F1090006FA00F0206000E001E04FF01B
:10568000000B99E05048007800F0040008B30021B6
:105690008D2008F079F800284ED1FF214B48FFF704
:1056A00086FD1021684607F09FFA90B3302505E08B
:1056B000FF214648FFF77BFD681EC5B2002DF7D1DC
:1056C0009DF80A000111102088402060AB4633E0AD
:1056D0006FE00021092008F057F8D0B91021684682
:1056E00007F082FAA8B13848007800F0020088B1CB
:1056F0009DF80A008006400E9DF80B1000EBD110BB
:10570000401C9DF80D100122C2EBA11188402060C1
:1057100010E011E09DF80B008007C00E9DF80B1003
:1057200000EB5110401C9DF80A10C1F38401491C84
:10573000484320604FF0000B3EE02348007800F023
:10574000060000B938E069460B20FFF72DFF00B1D5
:1057500032E09DF80000801128B99DF80A0000F0A1
:10576000400000B928E0A0464446D8F80090D8F898
:1057700004A01548007800F0080018B94FEA49293C
:105780004FEA4A2A4946202007F0FEFF80B95146D9
:10579000212007F0F9FF58B90021262007F0F4FF77
:1057A00030B947F2305008F03DFB08B14FF0000B24
:1057B00002E04FF0040B00BF00BF03F099FF584612
:1057C000FCE60000C4590020C5590020003001400B
:1057D00070B506460D461446FFF75CFC20B11C4828
:1057E000007800F0010008B1032070BD194800786E
:1057F00000F0080000B96D02012C0BD129461120E0
:1058000007F0C2FFE8B96102304607F0EDF9C0B118
:10581000002416E02946122007F0B6FF88B900BF21
:105820004FF40071304607F0DFF900B904E006F5E7
:105830000076601E041EF3D100BF00210C2007F08B
:10584000A3FF03F055FF0CB10120CEE70020CCE709
:10585000C4590020C559002010B5FFF71BFC08B93A
:10586000012010BDFFF718FC30B90848007840F05F
:1058700004000649087005E00448007820F00400A0
:105880000249087001480078EBE70000C459002085
:1058900070B506460D461446FFF7FCFB08B901201B
:1058A00070BDFFF7F9FB08B90220F9E7244800783A
:1058B00000F0010008B10320F2E72148007800F071
:1058C000040008B10220EBE71E48007800F0080051
:1058D00000B96D02012C0BD12946182007F054FFA6
:1058E00038BBFE21304608F001FB10B3002420E055
:1058F0001448007800F0060018B12146972007F000
:1059000043FF2946192007F03FFF90B900BFFC2153
:10591000304608F0EBFA00B904E006F50076601EA8
:10592000041EF4D100BFFD21002008F0DFFA00B909
:10593000012403F0DDFE0CB10120B1E70020AFE748
:10594000C4590020C559002070B505466C6A002076
:10595000E085E0842046FEF781FA70BD0168C968E1
:1059600021F490710268D1600168496921F0010158
:1059700002685161202180F83A10704710B5044642
:105980002068C06820F040002168C860202084F8AA
:1059900039002046FEF740FC002010BD70B50446DB
:1059A00094F83A00222847D1A068B0F5805F0CD166
:1059B000206950B90025A66A20684068C0F3080035
:1059C0003080A06A801CA06215E0A56A0026A0684D
:1059D000B0F5805F03D0A06828B9206918B92068A5
:1059E0004068287004E02068406800F07F0028705C
:1059F000A06A401CA062E08D401E80B2E085C8B95C
:105A00002068C06820F020002168C8602068C06855
:105A100020F480702168C8602068406920F001008F
:105A200021684861202084F83A002046FEF78AFB6E
:105A3000002070BD0020FCE70220FAE770B50446A4
:105A40002168096921F44051E2681143226811611B
:105A50002269A1681143626941EA02052168C968A7
:105A600041F20C62914329432268D160216849695F
:105A700021F44071A2691143226851612D4A2168C5
:105A8000914202D1FDF720FB01E0FDF70DFB00EB99
:105A9000C00101EB001162689200B1FBF2F100EB72
:105AA000C00202EB001263689B00B2FBF3F26423B6
:105AB000B2FBF3F202EBC20303EB0212A1EB820191
:105AC000322202EB01116422B1FBF2F101F0F0018C
:105AD00000EBC00202EB001263689B00B2FBF3F222
